{
  "_format": "hh-sol-artifact-1",
  "contractName": "DonationContract",
  "sourceName": "contracts/DonationContract.sol",
  "abi": [
    {
      "inputs": [
        {
          "internalType": "address payable",
          "name": "_moneyPoolAddress",
          "type": "address"
        }
      ],
      "stateMutability": "nonpayable",
      "type": "constructor"
    },
    {
      "anonymous": false,
      "inputs": [
        {
          "indexed": true,
          "internalType": "address",
          "name": "donor",
          "type": "address"
        },
        {
          "indexed": false,
          "internalType": "uint256",
          "name": "amount",
          "type": "uint256"
        }
      ],
      "name": "DonationReceived",
      "type": "event"
    },
    {
      "inputs": [
        {
          "internalType": "address",
          "name": "to",
          "type": "address"
        }
      ],
      "name": "claimPrize",
      "outputs": [],
      "stateMutability": "nonpayable",
      "type": "function"
    },
    {
      "inputs": [],
      "name": "donate",
      "outputs": [],
      "stateMutability": "payable",
      "type": "function"
    },
    {
      "inputs": [],
      "name": "donateV2",
      "outputs": [],
      "stateMutability": "payable",
      "type": "function"
    },
    {
      "inputs": [],
      "name": "moneyPoolAddress",
      "outputs": [
        {
          "internalType": "address payable",
          "name": "",
          "type": "address"
        }
      ],
      "stateMutability": "view",
      "type": "function"
    },
    {
      "inputs": [],
      "name": "withdrawAllToMoneyPool",
      "outputs": [],
      "stateMutability": "nonpayable",
      "type": "function"
    }
  ],
  "bytecode": "0x608060405234801561001057600080fd5b50604051610725380380610725833981810160405281019061003291906100db565b806000806101000a81548173ffffffffffffffffffffffffffffffffffffffff021916908373ffffffffffffffffffffffffffffffffffffffff16021790555050610108565b600080fd5b600073ffffffffffffffffffffffffffffffffffffffff82169050919050565b60006100a88261007d565b9050919050565b6100b88161009d565b81146100c357600080fd5b50565b6000815190506100d5816100af565b92915050565b6000602082840312156100f1576100f0610078565b5b60006100ff848285016100c6565b91505092915050565b61060e806101176000396000f3fe60806040526004361061004a5760003560e01c8063b0b21ce61461004f578063bc14018514610066578063d3d6972414610070578063e5e9b6611461009b578063ed88c68e146100c4575b600080fd5b34801561005b57600080fd5b506100646100ce565b005b61006e61017a565b005b34801561007c57600080fd5b506100856101ca565b60405161009291906103c4565b60405180910390f35b3480156100a757600080fd5b506100c260048036038101906100bd9190610422565b6101ee565b005b6100cc610289565b005b60004711610111576040517f08c379a0000000000000000000000000000000000000000000000000000000008152600401610108906104ac565b60405180910390fd5b60008054906101000a900473ffffffffffffffffffffffffffffffffffffffff1673ffffffffffffffffffffffffffffffffffffffff166108fc479081150290604051600060405180830381858888f19350505050158015610177573d6000803e3d6000fd5b50565b3373ffffffffffffffffffffffffffffffffffffffff167f264f630d9efa0d07053a31163641d9fcc0adafc9d9e76f1c37c2ce3a558d2c52346040516101c091906104e5565b60405180910390a2565b60008054906101000a900473ffffffffffffffffffffffffffffffffffffffff1681565b66b1a2bc2ec50000471015610238576040517f08c379a000000000000000000000000000000000000000000000000000000000815260040161022f9061054c565b60405180910390fd5b8073ffffffffffffffffffffffffffffffffffffffff166108fc66b1a2bc2ec500009081150290604051600060405180830381858888f19350505050158015610285573d6000803e3d6000fd5b5050565b600034116102cc576040517f08c379a00000000000000000000000000000000000000000000000000000000081526004016102c3906105b8565b60405180910390fd5b60008054906101000a900473ffffffffffffffffffffffffffffffffffffffff1673ffffffffffffffffffffffffffffffffffffffff166108fc349081150290604051600060405180830381858888f19350505050158015610332573d6000803e3d6000fd5b503373ffffffffffffffffffffffffffffffffffffffff167f264f630d9efa0d07053a31163641d9fcc0adafc9d9e76f1c37c2ce3a558d2c523460405161037991906104e5565b60405180910390a2565b600073ffffffffffffffffffffffffffffffffffffffff82169050919050565b60006103ae82610383565b9050919050565b6103be816103a3565b82525050565b60006020820190506103d960008301846103b5565b92915050565b600080fd5b60006103ef82610383565b9050919050565b6103ff816103e4565b811461040a57600080fd5b50565b60008135905061041c816103f6565b92915050565b600060208284031215610438576104376103df565b5b60006104468482850161040d565b91505092915050565b600082825260208201905092915050565b7f4e6f2066756e647320746f207769746864726177000000000000000000000000600082015250565b600061049660148361044f565b91506104a182610460565b602082019050919050565b600060208201905081810360008301526104c581610489565b9050919050565b6000819050919050565b6104df816104cc565b82525050565b60006020820190506104fa60008301846104d6565b92915050565b7f496e73756666696369656e742062616c616e636520696e20636f6e7472616374600082015250565b600061053660208361044f565b915061054182610500565b602082019050919050565b6000602082019050818103600083015261056581610529565b9050919050565b7f446f6e6174696f6e206d7573742062652067726561746572207468616e203000600082015250565b60006105a2601f8361044f565b91506105ad8261056c565b602082019050919050565b600060208201905081810360008301526105d181610595565b905091905056fea26469706673582212209d924c0d0f404fa2d0a1b6b5e2f49151cd9ec1dc1563208805eb8b3937b11de364736f6c63430008140033",
  "linkReferences": {},
  "deployedLinkReferences": {}
}