{
  "_format": "hh-sol-artifact-1",
  "contractName": "Greeter",
  "sourceName": "contracts/Greeter.sol",
  "abi": [
    {
      "inputs": [
        {
          "internalType": "string",
          "name": "_greeting",
          "type": "string"
        }
      ],
      "stateMutability": "nonpayable",
      "type": "constructor"
    },
    {
      "inputs": [],
      "name": "getETHLatestPrice",
      "outputs": [
        {
          "internalType": "int256",
          "name": "",
          "type": "int256"
        }
      ],
      "stateMutability": "view",
      "type": "function"
    },
    {
      "inputs": [],
      "name": "getLatestPrice",
      "outputs": [
        {
          "internalType": "int256",
          "name": "",
          "type": "int256"
        }
      ],
      "stateMutability": "view",
      "type": "function"
    },
    {
      "inputs": [],
      "name": "greet",
      "outputs": [
        {
          "internalType": "string",
          "name": "",
          "type": "string"
        }
      ],
      "stateMutability": "view",
      "type": "function"
    },
    {
      "inputs": [
        {
          "internalType": "string",
          "name": "_greeting",
          "type": "string"
        }
      ],
      "name": "setGreeting",
      "outputs": [],
      "stateMutability": "nonpayable",
      "type": "function"
    }
  ],
  "bytecode": "0x60806040523480156200001157600080fd5b506040516200153a3803806200153a8339818101604052810190620000379190620003c8565b620000626040518060600160405280602281526020016200151860229139826200012560201b60201c565b806000908162000073919062000664565b50731b44f3514812d835eb1bdb0acb33d3fa3351ee43600160006101000a81548173ffffffffffffffffffffffffffffffffffffffff021916908373ffffffffffffffffffffffffffffffffffffffff16021790555073694aa1769357215de4fac081bf1f309adc325306600260006101000a81548173ffffffffffffffffffffffffffffffffffffffff021916908373ffffffffffffffffffffffffffffffffffffffff1602179055505062000807565b620001c782826040516024016200013e9291906200079d565b6040516020818303038152906040527f4b5c4277000000000000000000000000000000000000000000000000000000007bffffffffffffffffffffffffffffffffffffffffffffffffffffffff19166020820180517bffffffffffffffffffffffffffffffffffffffffffffffffffffffff8381831617835250505050620001cb60201b60201c565b5050565b620001f181620001ec620001f460201b6200032b176200021560201b60201c565b60201c565b50565b60006a636f6e736f6c652e6c6f679050600080835160208501845afa505050565b6200022960201b6200041017819050919050565b62000233620007d8565b565b6000604051905090565b600080fd5b600080fd5b600080fd5b600080fd5b6000601f19601f8301169050919050565b7f4e487b7100000000000000000000000000000000000000000000000000000000600052604160045260246000fd5b6200029e8262000253565b810181811067ffffffffffffffff82111715620002c057620002bf62000264565b5b80604052505050565b6000620002d562000235565b9050620002e3828262000293565b919050565b600067ffffffffffffffff82111562000306576200030562000264565b5b620003118262000253565b9050602081019050919050565b60005b838110156200033e57808201518184015260208101905062000321565b60008484015250505050565b6000620003616200035b84620002e8565b620002c9565b90508281526020810184848401111562000380576200037f6200024e565b5b6200038d8482856200031e565b509392505050565b600082601f830112620003ad57620003ac62000249565b5b8151620003bf8482602086016200034a565b91505092915050565b600060208284031215620003e157620003e06200023f565b5b600082015167ffffffffffffffff81111562000402576200040162000244565b5b620004108482850162000395565b91505092915050565b600081519050919050565b7f4e487b7100000000000000000000000000000000000000000000000000000000600052602260045260246000fd5b600060028204905060018216806200046c57607f821691505b60208210810362000482576200048162000424565b5b50919050565b60008190508160005260206000209050919050565b60006020601f8301049050919050565b600082821b905092915050565b600060088302620004ec7fffffffffffffffffffffffffffffffffffffffffffffffffffffffffffffffff82620004ad565b620004f88683620004ad565b95508019841693508086168417925050509392505050565b6000819050919050565b6000819050919050565b6000620005456200053f620005398462000510565b6200051a565b62000510565b9050919050565b6000819050919050565b620005618362000524565b6200057962000570826200054c565b848454620004ba565b825550505050565b600090565b6200059062000581565b6200059d81848462000556565b505050565b5b81811015620005c557620005b960008262000586565b600181019050620005a3565b5050565b601f8211156200061457620005de8162000488565b620005e9846200049d565b81016020851015620005f9578190505b6200061162000608856200049d565b830182620005a2565b50505b505050565b600082821c905092915050565b6000620006396000198460080262000619565b1980831691505092915050565b600062000654838362000626565b9150826002028217905092915050565b6200066f8262000419565b67ffffffffffffffff8111156200068b576200068a62000264565b5b62000697825462000453565b620006a4828285620005c9565b600060209050601f831160018114620006dc5760008415620006c7578287015190505b620006d3858262000646565b86555062000743565b601f198416620006ec8662000488565b60005b828110156200071657848901518255600182019150602085019450602081019050620006ef565b8683101562000736578489015162000732601f89168262000626565b8355505b6001600288020188555050505b505050505050565b600082825260208201905092915050565b6000620007698262000419565b6200077581856200074b565b9350620007878185602086016200031e565b620007928162000253565b840191505092915050565b60006040820190508181036000830152620007b981856200075c565b90508181036020830152620007cf81846200075c565b90509392505050565b7f4e487b7100000000000000000000000000000000000000000000000000000000600052605160045260246000fd5b610d0180620008176000396000f3fe608060405234801561001057600080fd5b506004361061004c5760003560e01c80638e15f4731461005157806394e992561461006f578063a41368621461008d578063cfae3217146100a9575b600080fd5b6100596100c7565b6040516100669190610433565b60405180910390f35b610077610185565b6040516100849190610433565b60405180910390f35b6100a760048036038101906100a291906105a8565b610243565b005b6100b1610303565b6040516100be9190610670565b60405180910390f35b600080600080600080600160009054906101000a900473ffffffffffffffffffffffffffffffffffffffff1673ffffffffffffffffffffffffffffffffffffffff1663feaf968c6040518163ffffffff1660e01b815260040160a060405180830381865afa15801561013d573d6000803e3d6000fd5b505050506040513d601f19601f820116820180604052508101906101619190610736565b945094509450945094506305f5e1008461017b919061080f565b9550505050505090565b600080600080600080600260009054906101000a900473ffffffffffffffffffffffffffffffffffffffff1673ffffffffffffffffffffffffffffffffffffffff1663feaf968c6040518163ffffffff1660e01b815260040160a060405180830381865afa1580156101fb573d6000803e3d6000fd5b505050506040513d601f19601f8201168201806040525081019061021f9190610736565b945094509450945094506305f5e10084610239919061080f565b9550505050505090565b6102f0604051806060016040528060238152602001610ca9602391396000805461026c906108a8565b80601f0160208091040260200160405190810160405280929190818152602001828054610298906108a8565b80156102e55780601f106102ba576101008083540402835291602001916102e5565b820191906000526020600020905b8154815290600101906020018083116102c857829003601f168201915b50505050508361034c565b80600090816102ff9190610a85565b5050565b606060006040516020016103179190610c0b565b604051602081830303815290604052905090565b60006a636f6e736f6c652e6c6f679050600080835160208501845afa505050565b6103e683838360405160240161036493929190610c2d565b6040516020818303038152906040527f2ced7cef000000000000000000000000000000000000000000000000000000007bffffffffffffffffffffffffffffffffffffffffffffffffffffffff19166020820180517bffffffffffffffffffffffffffffffffffffffffffffffffffffffff83818316178352505050506103eb565b505050565b610402816103fa61032b610405565b63ffffffff16565b50565b610410819050919050565b610418610c79565b565b6000819050919050565b61042d8161041a565b82525050565b60006020820190506104486000830184610424565b92915050565b6000604051905090565b600080fd5b600080fd5b600080fd5b600080fd5b6000601f19601f8301169050919050565b7f4e487b7100000000000000000000000000000000000000000000000000000000600052604160045260246000fd5b6104b58261046c565b810181811067ffffffffffffffff821117156104d4576104d361047d565b5b80604052505050565b60006104e761044e565b90506104f382826104ac565b919050565b600067ffffffffffffffff8211156105135761051261047d565b5b61051c8261046c565b9050602081019050919050565b82818337600083830152505050565b600061054b610546846104f8565b6104dd565b90508281526020810184848401111561056757610566610467565b5b610572848285610529565b509392505050565b600082601f83011261058f5761058e610462565b5b813561059f848260208601610538565b91505092915050565b6000602082840312156105be576105bd610458565b5b600082013567ffffffffffffffff8111156105dc576105db61045d565b5b6105e88482850161057a565b91505092915050565b600081519050919050565b600082825260208201905092915050565b60005b8381101561062b578082015181840152602081019050610610565b60008484015250505050565b6000610642826105f1565b61064c81856105fc565b935061065c81856020860161060d565b6106658161046c565b840191505092915050565b6000602082019050818103600083015261068a8184610637565b905092915050565b600069ffffffffffffffffffff82169050919050565b6106b181610692565b81146106bc57600080fd5b50565b6000815190506106ce816106a8565b92915050565b6106dd8161041a565b81146106e857600080fd5b50565b6000815190506106fa816106d4565b92915050565b6000819050919050565b61071381610700565b811461071e57600080fd5b50565b6000815190506107308161070a565b92915050565b600080600080600060a0868803121561075257610751610458565b5b6000610760888289016106bf565b9550506020610771888289016106eb565b945050604061078288828901610721565b935050606061079388828901610721565b92505060806107a4888289016106bf565b9150509295509295909350565b7f4e487b7100000000000000000000000000000000000000000000000000000000600052601260045260246000fd5b7f4e487b7100000000000000000000000000000000000000000000000000000000600052601160045260246000fd5b600061081a8261041a565b91506108258361041a565b925082610835576108346107b1565b5b600160000383147f80000000000000000000000000000000000000000000000000000000000000008314161561086e5761086d6107e0565b5b828205905092915050565b7f4e487b7100000000000000000000000000000000000000000000000000000000600052602260045260246000fd5b600060028204905060018216806108c057607f821691505b6020821081036108d3576108d2610879565b5b50919050565b60008190508160005260206000209050919050565b60006020601f8301049050919050565b600082821b905092915050565b60006008830261093b7fffffffffffffffffffffffffffffffffffffffffffffffffffffffffffffffff826108fe565b61094586836108fe565b95508019841693508086168417925050509392505050565b6000819050919050565b600061098261097d61097884610700565b61095d565b610700565b9050919050565b6000819050919050565b61099c83610967565b6109b06109a882610989565b84845461090b565b825550505050565b600090565b6109c56109b8565b6109d0818484610993565b505050565b5b818110156109f4576109e96000826109bd565b6001810190506109d6565b5050565b601f821115610a3957610a0a816108d9565b610a13846108ee565b81016020851015610a22578190505b610a36610a2e856108ee565b8301826109d5565b50505b505050565b600082821c905092915050565b6000610a5c60001984600802610a3e565b1980831691505092915050565b6000610a758383610a4b565b9150826002028217905092915050565b610a8e826105f1565b67ffffffffffffffff811115610aa757610aa661047d565b5b610ab182546108a8565b610abc8282856109f8565b600060209050601f831160018114610aef5760008415610add578287015190505b610ae78582610a69565b865550610b4f565b601f198416610afd866108d9565b60005b82811015610b2557848901518255600182019150602085019450602081019050610b00565b86831015610b425784890151610b3e601f891682610a4b565b8355505b6001600288020188555050505b505050505050565b600081905092915050565b60008154610b6f816108a8565b610b798186610b57565b94506001821660008114610b945760018114610ba957610bdc565b60ff1983168652811515820286019350610bdc565b610bb2856108d9565b60005b83811015610bd457815481890152600182019150602081019050610bb5565b838801955050505b50505092915050565b50565b6000610bf5600083610b57565b9150610c0082610be5565b600082019050919050565b6000610c178284610b62565b9150610c2282610be8565b915081905092915050565b60006060820190508181036000830152610c478186610637565b90508181036020830152610c5b8185610637565b90508181036040830152610c6f8184610637565b9050949350505050565b7f4e487b7100000000000000000000000000000000000000000000000000000000600052605160045260246000fdfe4368616e67696e67206772656574696e672066726f6d202725732720746f2027257327a264697066735822122051fb4c4dd2b9dd0a2e209643488b3a8bbfa698912aa75bb5f829988a1513336f64736f6c634300081400334465706c6f79696e67206120477265657465722077697468206772656574696e673a",
  "linkReferences": {},
  "deployedLinkReferences": {}
}