{
  "_format": "hh-sol-artifact-1",
  "contractName": "UserProfile",
  "sourceName": "contracts/UserProfile.sol",
  "abi": [
    {
      "inputs": [
        {
          "internalType": "address",
          "name": "userAddress",
          "type": "address"
        }
      ],
      "name": "getProfile",
      "outputs": [
        {
          "components": [
            {
              "internalType": "string",
              "name": "username",
              "type": "string"
            },
            {
              "internalType": "string",
              "name": "selfIntroduction",
              "type": "string"
            },
            {
              "internalType": "uint256",
              "name": "totalDonations",
              "type": "uint256"
            }
          ],
          "internalType": "struct UserProfile.Profile",
          "name": "",
          "type": "tuple"
        }
      ],
      "stateMutability": "view",
      "type": "function"
    },
    {
      "inputs": [
        {
          "internalType": "string",
          "name": "_username",
          "type": "string"
        },
        {
          "internalType": "string",
          "name": "_selfIntroduction",
          "type": "string"
        }
      ],
      "name": "setProfile",
      "outputs": [],
      "stateMutability": "nonpayable",
      "type": "function"
    },
    {
      "inputs": [
        {
          "internalType": "address",
          "name": "userAddress",
          "type": "address"
        },
        {
          "internalType": "uint256",
          "name": "amount",
          "type": "uint256"
        }
      ],
      "name": "updateDonation",
      "outputs": [],
      "stateMutability": "nonpayable",
      "type": "function"
    }
  ],
  "bytecode": "0x608060405234801561001057600080fd5b50610a6d806100206000396000f3fe608060405234801561001057600080fd5b50600436106100415760003560e01c80630f53a47014610046578063719e37ae146100765780639f7b6c3514610092575b600080fd5b610060600480360381019061005b919061038e565b6100ae565b60405161006d91906104bb565b60405180910390f35b610090600480360381019061008b9190610612565b610234565b005b6100ac60048036038101906100a791906106b6565b61029f565b005b6100b66102fb565b6000808373ffffffffffffffffffffffffffffffffffffffff1673ffffffffffffffffffffffffffffffffffffffff16815260200190815260200160002060405180606001604052908160008201805461010f90610725565b80601f016020809104026020016040519081016040528092919081815260200182805461013b90610725565b80156101885780601f1061015d57610100808354040283529160200191610188565b820191906000526020600020905b81548152906001019060200180831161016b57829003601f168201915b505050505081526020016001820180546101a190610725565b80601f01602080910402602001604051908101604052809291908181526020018280546101cd90610725565b801561021a5780601f106101ef5761010080835404028352916020019161021a565b820191906000526020600020905b8154815290600101906020018083116101fd57829003601f168201915b505050505081526020016002820154815250509050919050565b60008060003373ffffffffffffffffffffffffffffffffffffffff1673ffffffffffffffffffffffffffffffffffffffff1681526020019081526020016000209050828160000190816102879190610902565b50818160010190816102999190610902565b50505050565b806000808473ffffffffffffffffffffffffffffffffffffffff1673ffffffffffffffffffffffffffffffffffffffff16815260200190815260200160002060020160008282546102f09190610a03565b925050819055505050565b60405180606001604052806060815260200160608152602001600081525090565b6000604051905090565b600080fd5b600080fd5b600073ffffffffffffffffffffffffffffffffffffffff82169050919050565b600061035b82610330565b9050919050565b61036b81610350565b811461037657600080fd5b50565b60008135905061038881610362565b92915050565b6000602082840312156103a4576103a3610326565b5b60006103b284828501610379565b91505092915050565b600081519050919050565b600082825260208201905092915050565b60005b838110156103f55780820151818401526020810190506103da565b60008484015250505050565b6000601f19601f8301169050919050565b600061041d826103bb565b61042781856103c6565b93506104378185602086016103d7565b61044081610401565b840191505092915050565b6000819050919050565b61045e8161044b565b82525050565b600060608301600083015184820360008601526104818282610412565b9150506020830151848203602086015261049b8282610412565b91505060408301516104b06040860182610455565b508091505092915050565b600060208201905081810360008301526104d58184610464565b905092915050565b600080fd5b600080fd5b7f4e487b7100000000000000000000000000000000000000000000000000000000600052604160045260246000fd5b61051f82610401565b810181811067ffffffffffffffff8211171561053e5761053d6104e7565b5b80604052505050565b600061055161031c565b905061055d8282610516565b919050565b600067ffffffffffffffff82111561057d5761057c6104e7565b5b61058682610401565b9050602081019050919050565b82818337600083830152505050565b60006105b56105b084610562565b610547565b9050828152602081018484840111156105d1576105d06104e2565b5b6105dc848285610593565b509392505050565b600082601f8301126105f9576105f86104dd565b5b81356106098482602086016105a2565b91505092915050565b6000806040838503121561062957610628610326565b5b600083013567ffffffffffffffff8111156106475761064661032b565b5b610653858286016105e4565b925050602083013567ffffffffffffffff8111156106745761067361032b565b5b610680858286016105e4565b9150509250929050565b6106938161044b565b811461069e57600080fd5b50565b6000813590506106b08161068a565b92915050565b600080604083850312156106cd576106cc610326565b5b60006106db85828601610379565b92505060206106ec858286016106a1565b9150509250929050565b7f4e487b7100000000000000000000000000000000000000000000000000000000600052602260045260246000fd5b6000600282049050600182168061073d57607f821691505b6020821081036107505761074f6106f6565b5b50919050565b60008190508160005260206000209050919050565b60006020601f8301049050919050565b600082821b905092915050565b6000600883026107b87fffffffffffffffffffffffffffffffffffffffffffffffffffffffffffffffff8261077b565b6107c2868361077b565b95508019841693508086168417925050509392505050565b6000819050919050565b60006107ff6107fa6107f58461044b565b6107da565b61044b565b9050919050565b6000819050919050565b610819836107e4565b61082d61082582610806565b848454610788565b825550505050565b600090565b610842610835565b61084d818484610810565b505050565b5b818110156108715761086660008261083a565b600181019050610853565b5050565b601f8211156108b65761088781610756565b6108908461076b565b8101602085101561089f578190505b6108b36108ab8561076b565b830182610852565b50505b505050565b600082821c905092915050565b60006108d9600019846008026108bb565b1980831691505092915050565b60006108f283836108c8565b9150826002028217905092915050565b61090b826103bb565b67ffffffffffffffff811115610924576109236104e7565b5b61092e8254610725565b610939828285610875565b600060209050601f83116001811461096c576000841561095a578287015190505b61096485826108e6565b8655506109cc565b601f19841661097a86610756565b60005b828110156109a25784890151825560018201915060208501945060208101905061097d565b868310156109bf57848901516109bb601f8916826108c8565b8355505b6001600288020188555050505b505050505050565b7f4e487b7100000000000000000000000000000000000000000000000000000000600052601160045260246000fd5b6000610a0e8261044b565b9150610a198361044b565b9250828201905080821115610a3157610a306109d4565b5b9291505056fea26469706673582212207221bde1d783765b1b1a88d90b20d85db34f27c830e65f0f49e3d15a6492cfb364736f6c63430008140033",
  "linkReferences": {},
  "deployedLinkReferences": {}
}