{
  "_format": "hh-sol-artifact-1",
  "contractName": "UserProfile",
  "sourceName": "contracts/UserProfile.sol",
  "abi": [
    {
      "inputs": [
        {
          "internalType": "address",
          "name": "userAddress",
          "type": "address"
        }
      ],
      "name": "getProfile",
      "outputs": [
        {
          "components": [
            {
              "internalType": "string",
              "name": "username",
              "type": "string"
            },
            {
              "internalType": "string",
              "name": "selfIntroduction",
              "type": "string"
            },
            {
              "internalType": "uint256",
              "name": "totalDonations",
              "type": "uint256"
            },
            {
              "internalType": "uint256",
              "name": "score",
              "type": "uint256"
            }
          ],
          "internalType": "struct UserProfile.Profile",
          "name": "",
          "type": "tuple"
        }
      ],
      "stateMutability": "view",
      "type": "function"
    },
    {
      "inputs": [],
      "name": "getUserAddresses",
      "outputs": [
        {
          "internalType": "address[]",
          "name": "",
          "type": "address[]"
        }
      ],
      "stateMutability": "view",
      "type": "function"
    },
    {
      "inputs": [
        {
          "internalType": "address",
          "name": "userAddress",
          "type": "address"
        }
      ],
      "name": "resetScore",
      "outputs": [],
      "stateMutability": "nonpayable",
      "type": "function"
    },
    {
      "inputs": [
        {
          "internalType": "string",
          "name": "_username",
          "type": "string"
        },
        {
          "internalType": "string",
          "name": "_selfIntroduction",
          "type": "string"
        }
      ],
      "name": "setProfile",
      "outputs": [],
      "stateMutability": "nonpayable",
      "type": "function"
    },
    {
      "inputs": [
        {
          "internalType": "address",
          "name": "userAddress",
          "type": "address"
        },
        {
          "internalType": "uint256",
          "name": "amount",
          "type": "uint256"
        }
      ],
      "name": "updateDonation",
      "outputs": [],
      "stateMutability": "nonpayable",
      "type": "function"
    }
  ],
  "bytecode": "0x608060405234801561001057600080fd5b50610ed0806100206000396000f3fe608060405234801561001057600080fd5b50600436106100575760003560e01c80630f53a4701461005c57806333620eb81461008c578063719e37ae146100a85780639f7b6c35146100c4578063a591efde146100e0575b600080fd5b610076600480360381019061007191906106fe565b6100fe565b604051610083919061083e565b60405180910390f35b6100a660048036038101906100a191906106fe565b61028e565b005b6100c260048036038101906100bd9190610995565b6102d8565b005b6100de60048036038101906100d99190610a39565b610409565b005b6100e86104c6565b6040516100f59190610b37565b60405180910390f35b610106610664565b6000808373ffffffffffffffffffffffffffffffffffffffff1673ffffffffffffffffffffffffffffffffffffffff16815260200190815260200160002060405180608001604052908160008201805461015f90610b88565b80601f016020809104026020016040519081016040528092919081815260200182805461018b90610b88565b80156101d85780601f106101ad576101008083540402835291602001916101d8565b820191906000526020600020905b8154815290600101906020018083116101bb57829003601f168201915b505050505081526020016001820180546101f190610b88565b80601f016020809104026020016040519081016040528092919081815260200182805461021d90610b88565b801561026a5780601f1061023f5761010080835404028352916020019161026a565b820191906000526020600020905b81548152906001019060200180831161024d57829003601f168201915b50505050508152602001600282015481526020016003820154815250509050919050565b60008060008373ffffffffffffffffffffffffffffffffffffffff1673ffffffffffffffffffffffffffffffffffffffff1681526020019081526020016000206003018190555050565b6102e133610554565b60405180608001604052808381526020018281526020016000803373ffffffffffffffffffffffffffffffffffffffff1673ffffffffffffffffffffffffffffffffffffffff1681526020019081526020016000206002015481526020016000803373ffffffffffffffffffffffffffffffffffffffff1673ffffffffffffffffffffffffffffffffffffffff168152602001908152602001600020600301548152506000803373ffffffffffffffffffffffffffffffffffffffff1673ffffffffffffffffffffffffffffffffffffffff16815260200190815260200160002060008201518160000190816103d79190610d65565b5060208201518160010190816103ed9190610d65565b5060408201518160020155606082015181600301559050505050565b61041282610554565b806000808473ffffffffffffffffffffffffffffffffffffffff1673ffffffffffffffffffffffffffffffffffffffff16815260200190815260200160002060020160008282546104639190610e66565b92505081905550806000808473ffffffffffffffffffffffffffffffffffffffff1673ffffffffffffffffffffffffffffffffffffffff16815260200190815260200160002060030160008282546104bb9190610e66565b925050819055505050565b6060600180548060200260200160405190810160405280929190818152602001828054801561054a57602002820191906000526020600020905b8160009054906101000a900473ffffffffffffffffffffffffffffffffffffffff1673ffffffffffffffffffffffffffffffffffffffff1681526020019060010190808311610500575b5050505050905090565b600260008273ffffffffffffffffffffffffffffffffffffffff1673ffffffffffffffffffffffffffffffffffffffff16815260200190815260200160002060009054906101000a900460ff16610661576001819080600181540180825580915050600190039060005260206000200160009091909190916101000a81548173ffffffffffffffffffffffffffffffffffffffff021916908373ffffffffffffffffffffffffffffffffffffffff1602179055506001600260008373ffffffffffffffffffffffffffffffffffffffff1673ffffffffffffffffffffffffffffffffffffffff16815260200190815260200160002060006101000a81548160ff0219169083151502179055505b50565b6040518060800160405280606081526020016060815260200160008152602001600081525090565b6000604051905090565b600080fd5b600080fd5b600073ffffffffffffffffffffffffffffffffffffffff82169050919050565b60006106cb826106a0565b9050919050565b6106db816106c0565b81146106e657600080fd5b50565b6000813590506106f8816106d2565b92915050565b60006020828403121561071457610713610696565b5b6000610722848285016106e9565b91505092915050565b600081519050919050565b600082825260208201905092915050565b60005b8381101561076557808201518184015260208101905061074a565b60008484015250505050565b6000601f19601f8301169050919050565b600061078d8261072b565b6107978185610736565b93506107a7818560208601610747565b6107b081610771565b840191505092915050565b6000819050919050565b6107ce816107bb565b82525050565b600060808301600083015184820360008601526107f18282610782565b9150506020830151848203602086015261080b8282610782565b915050604083015161082060408601826107c5565b50606083015161083360608601826107c5565b508091505092915050565b6000602082019050818103600083015261085881846107d4565b905092915050565b600080fd5b600080fd5b7f4e487b7100000000000000000000000000000000000000000000000000000000600052604160045260246000fd5b6108a282610771565b810181811067ffffffffffffffff821117156108c1576108c061086a565b5b80604052505050565b60006108d461068c565b90506108e08282610899565b919050565b600067ffffffffffffffff821115610900576108ff61086a565b5b61090982610771565b9050602081019050919050565b82818337600083830152505050565b6000610938610933846108e5565b6108ca565b90508281526020810184848401111561095457610953610865565b5b61095f848285610916565b509392505050565b600082601f83011261097c5761097b610860565b5b813561098c848260208601610925565b91505092915050565b600080604083850312156109ac576109ab610696565b5b600083013567ffffffffffffffff8111156109ca576109c961069b565b5b6109d685828601610967565b925050602083013567ffffffffffffffff8111156109f7576109f661069b565b5b610a0385828601610967565b9150509250929050565b610a16816107bb565b8114610a2157600080fd5b50565b600081359050610a3381610a0d565b92915050565b60008060408385031215610a5057610a4f610696565b5b6000610a5e858286016106e9565b9250506020610a6f85828601610a24565b9150509250929050565b600081519050919050565b600082825260208201905092915050565b6000819050602082019050919050565b610aae816106c0565b82525050565b6000610ac08383610aa5565b60208301905092915050565b6000602082019050919050565b6000610ae482610a79565b610aee8185610a84565b9350610af983610a95565b8060005b83811015610b2a578151610b118882610ab4565b9750610b1c83610acc565b925050600181019050610afd565b5085935050505092915050565b60006020820190508181036000830152610b518184610ad9565b905092915050565b7f4e487b7100000000000000000000000000000000000000000000000000000000600052602260045260246000fd5b60006002820490506001821680610ba057607f821691505b602082108103610bb357610bb2610b59565b5b50919050565b60008190508160005260206000209050919050565b60006020601f8301049050919050565b600082821b905092915050565b600060088302610c1b7fffffffffffffffffffffffffffffffffffffffffffffffffffffffffffffffff82610bde565b610c258683610bde565b95508019841693508086168417925050509392505050565b6000819050919050565b6000610c62610c5d610c58846107bb565b610c3d565b6107bb565b9050919050565b6000819050919050565b610c7c83610c47565b610c90610c8882610c69565b848454610beb565b825550505050565b600090565b610ca5610c98565b610cb0818484610c73565b505050565b5b81811015610cd457610cc9600082610c9d565b600181019050610cb6565b5050565b601f821115610d1957610cea81610bb9565b610cf384610bce565b81016020851015610d02578190505b610d16610d0e85610bce565b830182610cb5565b50505b505050565b600082821c905092915050565b6000610d3c60001984600802610d1e565b1980831691505092915050565b6000610d558383610d2b565b9150826002028217905092915050565b610d6e8261072b565b67ffffffffffffffff811115610d8757610d8661086a565b5b610d918254610b88565b610d9c828285610cd8565b600060209050601f831160018114610dcf5760008415610dbd578287015190505b610dc78582610d49565b865550610e2f565b601f198416610ddd86610bb9565b60005b82811015610e0557848901518255600182019150602085019450602081019050610de0565b86831015610e225784890151610e1e601f891682610d2b565b8355505b6001600288020188555050505b505050505050565b7f4e487b7100000000000000000000000000000000000000000000000000000000600052601160045260246000fd5b6000610e71826107bb565b9150610e7c836107bb565b9250828201905080821115610e9457610e93610e37565b5b9291505056fea2646970667358221220380891e066137ce5a871a0f4461ccdba8996e48be3c8a599e71009764799d97264736f6c63430008140033",
  "linkReferences": {},
  "deployedLinkReferences": {}
}