{
  "_format": "hh-sol-artifact-1",
  "contractName": "UserProfile",
  "sourceName": "contracts/UserProfile.sol",
  "abi": [
    {
      "inputs": [
        {
          "internalType": "address",
          "name": "userAddress",
          "type": "address"
        }
      ],
      "name": "getProfile",
      "outputs": [
        {
          "components": [
            {
              "internalType": "string",
              "name": "username",
              "type": "string"
            },
            {
              "internalType": "string",
              "name": "selfIntroduction",
              "type": "string"
            }
          ],
          "internalType": "struct UserProfile.Profile",
          "name": "",
          "type": "tuple"
        }
      ],
      "stateMutability": "view",
      "type": "function"
    },
    {
      "inputs": [
        {
          "internalType": "string",
          "name": "_username",
          "type": "string"
        },
        {
          "internalType": "string",
          "name": "_selfIntroduction",
          "type": "string"
        }
      ],
      "name": "setProfile",
      "outputs": [],
      "stateMutability": "nonpayable",
      "type": "function"
    }
  ],
  "bytecode": "0x608060405234801561001057600080fd5b50610903806100206000396000f3fe608060405234801561001057600080fd5b50600436106100365760003560e01c80630f53a4701461003b578063719e37ae1461006b575b600080fd5b61005560048036038101906100509190610315565b610087565b6040516100629190610416565b60405180910390f35b6100856004803603810190610080919061056d565b610203565b005b61008f610289565b6000808373ffffffffffffffffffffffffffffffffffffffff1673ffffffffffffffffffffffffffffffffffffffff1681526020019081526020016000206040518060400160405290816000820180546100e890610614565b80601f016020809104026020016040519081016040528092919081815260200182805461011490610614565b80156101615780601f1061013657610100808354040283529160200191610161565b820191906000526020600020905b81548152906001019060200180831161014457829003601f168201915b5050505050815260200160018201805461017a90610614565b80601f01602080910402602001604051908101604052809291908181526020018280546101a690610614565b80156101f35780601f106101c8576101008083540402835291602001916101f3565b820191906000526020600020905b8154815290600101906020018083116101d657829003601f168201915b5050505050815250509050919050565b6040518060400160405280838152602001828152506000803373ffffffffffffffffffffffffffffffffffffffff1673ffffffffffffffffffffffffffffffffffffffff168152602001908152602001600020600082015181600001908161026b91906107fb565b50602082015181600101908161028191906107fb565b509050505050565b604051806040016040528060608152602001606081525090565b6000604051905090565b600080fd5b600080fd5b600073ffffffffffffffffffffffffffffffffffffffff82169050919050565b60006102e2826102b7565b9050919050565b6102f2816102d7565b81146102fd57600080fd5b50565b60008135905061030f816102e9565b92915050565b60006020828403121561032b5761032a6102ad565b5b600061033984828501610300565b91505092915050565b600081519050919050565b600082825260208201905092915050565b60005b8381101561037c578082015181840152602081019050610361565b60008484015250505050565b6000601f19601f8301169050919050565b60006103a482610342565b6103ae818561034d565b93506103be81856020860161035e565b6103c781610388565b840191505092915050565b600060408301600083015184820360008601526103ef8282610399565b915050602083015184820360208601526104098282610399565b9150508091505092915050565b6000602082019050818103600083015261043081846103d2565b905092915050565b600080fd5b600080fd5b7f4e487b7100000000000000000000000000000000000000000000000000000000600052604160045260246000fd5b61047a82610388565b810181811067ffffffffffffffff8211171561049957610498610442565b5b80604052505050565b60006104ac6102a3565b90506104b88282610471565b919050565b600067ffffffffffffffff8211156104d8576104d7610442565b5b6104e182610388565b9050602081019050919050565b82818337600083830152505050565b600061051061050b846104bd565b6104a2565b90508281526020810184848401111561052c5761052b61043d565b5b6105378482856104ee565b509392505050565b600082601f83011261055457610553610438565b5b81356105648482602086016104fd565b91505092915050565b60008060408385031215610584576105836102ad565b5b600083013567ffffffffffffffff8111156105a2576105a16102b2565b5b6105ae8582860161053f565b925050602083013567ffffffffffffffff8111156105cf576105ce6102b2565b5b6105db8582860161053f565b9150509250929050565b7f4e487b7100000000000000000000000000000000000000000000000000000000600052602260045260246000fd5b6000600282049050600182168061062c57607f821691505b60208210810361063f5761063e6105e5565b5b50919050565b60008190508160005260206000209050919050565b60006020601f8301049050919050565b600082821b905092915050565b6000600883026106a77fffffffffffffffffffffffffffffffffffffffffffffffffffffffffffffffff8261066a565b6106b1868361066a565b95508019841693508086168417925050509392505050565b6000819050919050565b6000819050919050565b60006106f86106f36106ee846106c9565b6106d3565b6106c9565b9050919050565b6000819050919050565b610712836106dd565b61072661071e826106ff565b848454610677565b825550505050565b600090565b61073b61072e565b610746818484610709565b505050565b5b8181101561076a5761075f600082610733565b60018101905061074c565b5050565b601f8211156107af5761078081610645565b6107898461065a565b81016020851015610798578190505b6107ac6107a48561065a565b83018261074b565b50505b505050565b600082821c905092915050565b60006107d2600019846008026107b4565b1980831691505092915050565b60006107eb83836107c1565b9150826002028217905092915050565b61080482610342565b67ffffffffffffffff81111561081d5761081c610442565b5b6108278254610614565b61083282828561076e565b600060209050601f8311600181146108655760008415610853578287015190505b61085d85826107df565b8655506108c5565b601f19841661087386610645565b60005b8281101561089b57848901518255600182019150602085019450602081019050610876565b868310156108b857848901516108b4601f8916826107c1565b8355505b6001600288020188555050505b50505050505056fea2646970667358221220fbde8bf98ceeb7cb70a7eb6fbe5252fa0c59be21179bbeba69100883ca02866264736f6c63430008140033",
  "linkReferences": {},
  "deployedLinkReferences": {}
}