{
  "_format": "hh-sol-artifact-1",
  "contractName": "UserProfile",
  "sourceName": "contracts/UserProfile.sol",
  "abi": [
    {
      "inputs": [
        {
          "internalType": "address",
          "name": "userAddress",
          "type": "address"
        }
      ],
      "name": "getProfile",
      "outputs": [
        {
          "components": [
            {
              "internalType": "string",
              "name": "username",
              "type": "string"
            },
            {
              "internalType": "string",
              "name": "selfIntroduction",
              "type": "string"
            },
            {
              "internalType": "uint256",
              "name": "totalDonations",
              "type": "uint256"
            }
          ],
          "internalType": "struct UserProfile.Profile",
          "name": "",
          "type": "tuple"
        }
      ],
      "stateMutability": "view",
      "type": "function"
    },
    {
      "inputs": [],
      "name": "getUserAddresses",
      "outputs": [
        {
          "internalType": "address[]",
          "name": "",
          "type": "address[]"
        }
      ],
      "stateMutability": "view",
      "type": "function"
    },
    {
      "inputs": [
        {
          "internalType": "string",
          "name": "_username",
          "type": "string"
        },
        {
          "internalType": "string",
          "name": "_selfIntroduction",
          "type": "string"
        }
      ],
      "name": "setProfile",
      "outputs": [],
      "stateMutability": "nonpayable",
      "type": "function"
    },
    {
      "inputs": [
        {
          "internalType": "address",
          "name": "userAddress",
          "type": "address"
        },
        {
          "internalType": "uint256",
          "name": "amount",
          "type": "uint256"
        }
      ],
      "name": "updateDonation",
      "outputs": [],
      "stateMutability": "nonpayable",
      "type": "function"
    }
  ],
  "bytecode": "0x608060405234801561001057600080fd5b50610d92806100206000396000f3fe608060405234801561001057600080fd5b506004361061004c5760003560e01c80630f53a47014610051578063719e37ae146100815780639f7b6c351461009d578063a591efde146100b9575b600080fd5b61006b600480360381019061006691906105d3565b6100d7565b6040516100789190610700565b60405180910390f35b61009b60048036038101906100969190610857565b61025d565b005b6100b760048036038101906100b291906108fb565b61033d565b005b6100c16103a2565b6040516100ce91906109f9565b60405180910390f35b6100df610540565b6000808373ffffffffffffffffffffffffffffffffffffffff1673ffffffffffffffffffffffffffffffffffffffff16815260200190815260200160002060405180606001604052908160008201805461013890610a4a565b80601f016020809104026020016040519081016040528092919081815260200182805461016490610a4a565b80156101b15780601f10610186576101008083540402835291602001916101b1565b820191906000526020600020905b81548152906001019060200180831161019457829003601f168201915b505050505081526020016001820180546101ca90610a4a565b80601f01602080910402602001604051908101604052809291908181526020018280546101f690610a4a565b80156102435780601f1061021857610100808354040283529160200191610243565b820191906000526020600020905b81548152906001019060200180831161022657829003601f168201915b505050505081526020016002820154815250509050919050565b61026633610430565b60405180606001604052808381526020018281526020016000803373ffffffffffffffffffffffffffffffffffffffff1673ffffffffffffffffffffffffffffffffffffffff168152602001908152602001600020600201548152506000803373ffffffffffffffffffffffffffffffffffffffff1673ffffffffffffffffffffffffffffffffffffffff16815260200190815260200160002060008201518160000190816103159190610c27565b50602082015181600101908161032b9190610c27565b50604082015181600201559050505050565b61034682610430565b806000808473ffffffffffffffffffffffffffffffffffffffff1673ffffffffffffffffffffffffffffffffffffffff16815260200190815260200160002060020160008282546103979190610d28565b925050819055505050565b6060600180548060200260200160405190810160405280929190818152602001828054801561042657602002820191906000526020600020905b8160009054906101000a900473ffffffffffffffffffffffffffffffffffffffff1673ffffffffffffffffffffffffffffffffffffffff16815260200190600101908083116103dc575b5050505050905090565b600260008273ffffffffffffffffffffffffffffffffffffffff1673ffffffffffffffffffffffffffffffffffffffff16815260200190815260200160002060009054906101000a900460ff1661053d576001819080600181540180825580915050600190039060005260206000200160009091909190916101000a81548173ffffffffffffffffffffffffffffffffffffffff021916908373ffffffffffffffffffffffffffffffffffffffff1602179055506001600260008373ffffffffffffffffffffffffffffffffffffffff1673ffffffffffffffffffffffffffffffffffffffff16815260200190815260200160002060006101000a81548160ff0219169083151502179055505b50565b60405180606001604052806060815260200160608152602001600081525090565b6000604051905090565b600080fd5b600080fd5b600073ffffffffffffffffffffffffffffffffffffffff82169050919050565b60006105a082610575565b9050919050565b6105b081610595565b81146105bb57600080fd5b50565b6000813590506105cd816105a7565b92915050565b6000602082840312156105e9576105e861056b565b5b60006105f7848285016105be565b91505092915050565b600081519050919050565b600082825260208201905092915050565b60005b8381101561063a57808201518184015260208101905061061f565b60008484015250505050565b6000601f19601f8301169050919050565b600061066282610600565b61066c818561060b565b935061067c81856020860161061c565b61068581610646565b840191505092915050565b6000819050919050565b6106a381610690565b82525050565b600060608301600083015184820360008601526106c68282610657565b915050602083015184820360208601526106e08282610657565b91505060408301516106f5604086018261069a565b508091505092915050565b6000602082019050818103600083015261071a81846106a9565b905092915050565b600080fd5b600080fd5b7f4e487b7100000000000000000000000000000000000000000000000000000000600052604160045260246000fd5b61076482610646565b810181811067ffffffffffffffff821117156107835761078261072c565b5b80604052505050565b6000610796610561565b90506107a2828261075b565b919050565b600067ffffffffffffffff8211156107c2576107c161072c565b5b6107cb82610646565b9050602081019050919050565b82818337600083830152505050565b60006107fa6107f5846107a7565b61078c565b90508281526020810184848401111561081657610815610727565b5b6108218482856107d8565b509392505050565b600082601f83011261083e5761083d610722565b5b813561084e8482602086016107e7565b91505092915050565b6000806040838503121561086e5761086d61056b565b5b600083013567ffffffffffffffff81111561088c5761088b610570565b5b61089885828601610829565b925050602083013567ffffffffffffffff8111156108b9576108b8610570565b5b6108c585828601610829565b9150509250929050565b6108d881610690565b81146108e357600080fd5b50565b6000813590506108f5816108cf565b92915050565b600080604083850312156109125761091161056b565b5b6000610920858286016105be565b9250506020610931858286016108e6565b9150509250929050565b600081519050919050565b600082825260208201905092915050565b6000819050602082019050919050565b61097081610595565b82525050565b60006109828383610967565b60208301905092915050565b6000602082019050919050565b60006109a68261093b565b6109b08185610946565b93506109bb83610957565b8060005b838110156109ec5781516109d38882610976565b97506109de8361098e565b9250506001810190506109bf565b5085935050505092915050565b60006020820190508181036000830152610a13818461099b565b905092915050565b7f4e487b7100000000000000000000000000000000000000000000000000000000600052602260045260246000fd5b60006002820490506001821680610a6257607f821691505b602082108103610a7557610a74610a1b565b5b50919050565b60008190508160005260206000209050919050565b60006020601f8301049050919050565b600082821b905092915050565b600060088302610add7fffffffffffffffffffffffffffffffffffffffffffffffffffffffffffffffff82610aa0565b610ae78683610aa0565b95508019841693508086168417925050509392505050565b6000819050919050565b6000610b24610b1f610b1a84610690565b610aff565b610690565b9050919050565b6000819050919050565b610b3e83610b09565b610b52610b4a82610b2b565b848454610aad565b825550505050565b600090565b610b67610b5a565b610b72818484610b35565b505050565b5b81811015610b9657610b8b600082610b5f565b600181019050610b78565b5050565b601f821115610bdb57610bac81610a7b565b610bb584610a90565b81016020851015610bc4578190505b610bd8610bd085610a90565b830182610b77565b50505b505050565b600082821c905092915050565b6000610bfe60001984600802610be0565b1980831691505092915050565b6000610c178383610bed565b9150826002028217905092915050565b610c3082610600565b67ffffffffffffffff811115610c4957610c4861072c565b5b610c538254610a4a565b610c5e828285610b9a565b600060209050601f831160018114610c915760008415610c7f578287015190505b610c898582610c0b565b865550610cf1565b601f198416610c9f86610a7b565b60005b82811015610cc757848901518255600182019150602085019450602081019050610ca2565b86831015610ce45784890151610ce0601f891682610bed565b8355505b6001600288020188555050505b505050505050565b7f4e487b7100000000000000000000000000000000000000000000000000000000600052601160045260246000fd5b6000610d3382610690565b9150610d3e83610690565b9250828201905080821115610d5657610d55610cf9565b5b9291505056fea26469706673582212207896d68e0b573faf209f2e0f65196ead572f7432ae5257d89f133a3908c1c11e64736f6c63430008140033",
  "linkReferences": {},
  "deployedLinkReferences": {}
}