{
  "_format": "hh-sol-artifact-1",
  "contractName": "TicketNFT",
  "sourceName": "contracts/TicketNFT.sol",
  "abi": [
    {
      "inputs": [
        {
          "internalType": "string",
          "name": "uri_",
          "type": "string"
        }
      ],
      "stateMutability": "nonpayable",
      "type": "constructor"
    },
    {
      "inputs": [
        {
          "internalType": "address",
          "name": "sender",
          "type": "address"
        },
        {
          "internalType": "uint256",
          "name": "balance",
          "type": "uint256"
        },
        {
          "internalType": "uint256",
          "name": "needed",
          "type": "uint256"
        },
        {
          "internalType": "uint256",
          "name": "tokenId",
          "type": "uint256"
        }
      ],
      "name": "ERC1155InsufficientBalance",
      "type": "error"
    },
    {
      "inputs": [
        {
          "internalType": "address",
          "name": "approver",
          "type": "address"
        }
      ],
      "name": "ERC1155InvalidApprover",
      "type": "error"
    },
    {
      "inputs": [
        {
          "internalType": "uint256",
          "name": "idsLength",
          "type": "uint256"
        },
        {
          "internalType": "uint256",
          "name": "valuesLength",
          "type": "uint256"
        }
      ],
      "name": "ERC1155InvalidArrayLength",
      "type": "error"
    },
    {
      "inputs": [
        {
          "internalType": "address",
          "name": "operator",
          "type": "address"
        }
      ],
      "name": "ERC1155InvalidOperator",
      "type": "error"
    },
    {
      "inputs": [
        {
          "internalType": "address",
          "name": "receiver",
          "type": "address"
        }
      ],
      "name": "ERC1155InvalidReceiver",
      "type": "error"
    },
    {
      "inputs": [
        {
          "internalType": "address",
          "name": "sender",
          "type": "address"
        }
      ],
      "name": "ERC1155InvalidSender",
      "type": "error"
    },
    {
      "inputs": [
        {
          "internalType": "address",
          "name": "operator",
          "type": "address"
        },
        {
          "internalType": "address",
          "name": "owner",
          "type": "address"
        }
      ],
      "name": "ERC1155MissingApprovalForAll",
      "type": "error"
    },
    {
      "anonymous": false,
      "inputs": [
        {
          "indexed": true,
          "internalType": "address",
          "name": "account",
          "type": "address"
        },
        {
          "indexed": true,
          "internalType": "address",
          "name": "operator",
          "type": "address"
        },
        {
          "indexed": false,
          "internalType": "bool",
          "name": "approved",
          "type": "bool"
        }
      ],
      "name": "ApprovalForAll",
      "type": "event"
    },
    {
      "anonymous": false,
      "inputs": [
        {
          "indexed": true,
          "internalType": "address",
          "name": "operator",
          "type": "address"
        },
        {
          "indexed": true,
          "internalType": "address",
          "name": "from",
          "type": "address"
        },
        {
          "indexed": true,
          "internalType": "address",
          "name": "to",
          "type": "address"
        },
        {
          "indexed": false,
          "internalType": "uint256[]",
          "name": "ids",
          "type": "uint256[]"
        },
        {
          "indexed": false,
          "internalType": "uint256[]",
          "name": "values",
          "type": "uint256[]"
        }
      ],
      "name": "TransferBatch",
      "type": "event"
    },
    {
      "anonymous": false,
      "inputs": [
        {
          "indexed": true,
          "internalType": "address",
          "name": "operator",
          "type": "address"
        },
        {
          "indexed": true,
          "internalType": "address",
          "name": "from",
          "type": "address"
        },
        {
          "indexed": true,
          "internalType": "address",
          "name": "to",
          "type": "address"
        },
        {
          "indexed": false,
          "internalType": "uint256",
          "name": "id",
          "type": "uint256"
        },
        {
          "indexed": false,
          "internalType": "uint256",
          "name": "value",
          "type": "uint256"
        }
      ],
      "name": "TransferSingle",
      "type": "event"
    },
    {
      "anonymous": false,
      "inputs": [
        {
          "indexed": false,
          "internalType": "string",
          "name": "value",
          "type": "string"
        },
        {
          "indexed": true,
          "internalType": "uint256",
          "name": "id",
          "type": "uint256"
        }
      ],
      "name": "URI",
      "type": "event"
    },
    {
      "inputs": [
        {
          "internalType": "address",
          "name": "account",
          "type": "address"
        },
        {
          "internalType": "uint256",
          "name": "id",
          "type": "uint256"
        }
      ],
      "name": "balanceOf",
      "outputs": [
        {
          "internalType": "uint256",
          "name": "",
          "type": "uint256"
        }
      ],
      "stateMutability": "view",
      "type": "function"
    },
    {
      "inputs": [
        {
          "internalType": "address[]",
          "name": "accounts",
          "type": "address[]"
        },
        {
          "internalType": "uint256[]",
          "name": "ids",
          "type": "uint256[]"
        }
      ],
      "name": "balanceOfBatch",
      "outputs": [
        {
          "internalType": "uint256[]",
          "name": "",
          "type": "uint256[]"
        }
      ],
      "stateMutability": "view",
      "type": "function"
    },
    {
      "inputs": [
        {
          "internalType": "address",
          "name": "account",
          "type": "address"
        },
        {
          "internalType": "address",
          "name": "operator",
          "type": "address"
        }
      ],
      "name": "isApprovedForAll",
      "outputs": [
        {
          "internalType": "bool",
          "name": "",
          "type": "bool"
        }
      ],
      "stateMutability": "view",
      "type": "function"
    },
    {
      "inputs": [
        {
          "internalType": "address",
          "name": "to",
          "type": "address"
        },
        {
          "internalType": "uint256",
          "name": "nftId",
          "type": "uint256"
        }
      ],
      "name": "mintFromMarketPlace",
      "outputs": [],
      "stateMutability": "nonpayable",
      "type": "function"
    },
    {
      "inputs": [],
      "name": "owner",
      "outputs": [
        {
          "internalType": "address",
          "name": "",
          "type": "address"
        }
      ],
      "stateMutability": "view",
      "type": "function"
    },
    {
      "inputs": [
        {
          "internalType": "address",
          "name": "from",
          "type": "address"
        },
        {
          "internalType": "address",
          "name": "to",
          "type": "address"
        },
        {
          "internalType": "uint256[]",
          "name": "ids",
          "type": "uint256[]"
        },
        {
          "internalType": "uint256[]",
          "name": "values",
          "type": "uint256[]"
        },
        {
          "internalType": "bytes",
          "name": "data",
          "type": "bytes"
        }
      ],
      "name": "safeBatchTransferFrom",
      "outputs": [],
      "stateMutability": "nonpayable",
      "type": "function"
    },
    {
      "inputs": [
        {
          "internalType": "address",
          "name": "from",
          "type": "address"
        },
        {
          "internalType": "address",
          "name": "to",
          "type": "address"
        },
        {
          "internalType": "uint256",
          "name": "id",
          "type": "uint256"
        },
        {
          "internalType": "uint256",
          "name": "value",
          "type": "uint256"
        },
        {
          "internalType": "bytes",
          "name": "data",
          "type": "bytes"
        }
      ],
      "name": "safeTransferFrom",
      "outputs": [],
      "stateMutability": "nonpayable",
      "type": "function"
    },
    {
      "inputs": [
        {
          "internalType": "address",
          "name": "operator",
          "type": "address"
        },
        {
          "internalType": "bool",
          "name": "approved",
          "type": "bool"
        }
      ],
      "name": "setApprovalForAll",
      "outputs": [],
      "stateMutability": "nonpayable",
      "type": "function"
    },
    {
      "inputs": [
        {
          "internalType": "bytes4",
          "name": "interfaceId",
          "type": "bytes4"
        }
      ],
      "name": "supportsInterface",
      "outputs": [
        {
          "internalType": "bool",
          "name": "",
          "type": "bool"
        }
      ],
      "stateMutability": "view",
      "type": "function"
    },
    {
      "inputs": [
        {
          "internalType": "uint256",
          "name": "",
          "type": "uint256"
        }
      ],
      "name": "uri",
      "outputs": [
        {
          "internalType": "string",
          "name": "",
          "type": "string"
        }
      ],
      "stateMutability": "view",
      "type": "function"
    }
  ],
  "bytecode": "0x60806040523480156200001157600080fd5b50604051620026413803806200264183398181016040528101906200003791906200023a565b8062000049816200009260201b60201c565b5033600360006101000a81548173ffffffffffffffffffffffffffffffffffffffff021916908373ffffffffffffffffffffffffffffffffffffffff16021790555050620005bd565b8060029081620000a39190620004d6565b5050565b6000604051905090565b600080fd5b600080fd5b600080fd5b600080fd5b6000601f19601f8301169050919050565b7f4e487b7100000000000000000000000000000000000000000000000000000000600052604160045260246000fd5b6200011082620000c5565b810181811067ffffffffffffffff82111715620001325762000131620000d6565b5b80604052505050565b600062000147620000a7565b905062000155828262000105565b919050565b600067ffffffffffffffff821115620001785762000177620000d6565b5b6200018382620000c5565b9050602081019050919050565b60005b83811015620001b057808201518184015260208101905062000193565b60008484015250505050565b6000620001d3620001cd846200015a565b6200013b565b905082815260208101848484011115620001f257620001f1620000c0565b5b620001ff84828562000190565b509392505050565b600082601f8301126200021f576200021e620000bb565b5b815162000231848260208601620001bc565b91505092915050565b600060208284031215620002535762000252620000b1565b5b600082015167ffffffffffffffff811115620002745762000273620000b6565b5b620002828482850162000207565b91505092915050565b600081519050919050565b7f4e487b7100000000000000000000000000000000000000000000000000000000600052602260045260246000fd5b60006002820490506001821680620002de57607f821691505b602082108103620002f457620002f362000296565b5b50919050565b60008190508160005260206000209050919050565b60006020601f8301049050919050565b600082821b905092915050565b6000600883026200035e7fffffffffffffffffffffffffffffffffffffffffffffffffffffffffffffffff826200031f565b6200036a86836200031f565b95508019841693508086168417925050509392505050565b6000819050919050565b6000819050919050565b6000620003b7620003b1620003ab8462000382565b6200038c565b62000382565b9050919050565b6000819050919050565b620003d38362000396565b620003eb620003e282620003be565b8484546200032c565b825550505050565b600090565b62000402620003f3565b6200040f818484620003c8565b505050565b5b8181101562000437576200042b600082620003f8565b60018101905062000415565b5050565b601f82111562000486576200045081620002fa565b6200045b846200030f565b810160208510156200046b578190505b620004836200047a856200030f565b83018262000414565b50505b505050565b600082821c905092915050565b6000620004ab600019846008026200048b565b1980831691505092915050565b6000620004c6838362000498565b9150826002028217905092915050565b620004e1826200028b565b67ffffffffffffffff811115620004fd57620004fc620000d6565b5b620005098254620002c5565b620005168282856200043b565b600060209050601f8311600181146200054e576000841562000539578287015190505b620005458582620004b8565b865550620005b5565b601f1984166200055e86620002fa565b60005b82811015620005885784890151825560018201915060208501945060208101905062000561565b86831015620005a85784890151620005a4601f89168262000498565b8355505b6001600288020188555050505b505050505050565b61207480620005cd6000396000f3fe608060405234801561001057600080fd5b506004361061009d5760003560e01c80638d9c21d4116100665780638d9c21d41461017e5780638da5cb5b1461019a578063a22cb465146101b8578063e985e9c5146101d4578063f242432a146102045761009d565b8062fdd58e146100a257806301ffc9a7146100d25780630e89341c146101025780632eb2c2d6146101325780634e1273f41461014e575b600080fd5b6100bc60048036038101906100b79190611485565b610220565b6040516100c991906114d4565b60405180910390f35b6100ec60048036038101906100e79190611547565b61027a565b6040516100f9919061158f565b60405180910390f35b61011c600480360381019061011791906115aa565b61035c565b6040516101299190611667565b60405180910390f35b61014c60048036038101906101479190611886565b6103f0565b005b61016860048036038101906101639190611a18565b610498565b6040516101759190611b4e565b60405180910390f35b61019860048036038101906101939190611485565b6105a7565b005b6101a26105c7565b6040516101af9190611b7f565b60405180910390f35b6101d260048036038101906101cd9190611bc6565b6105ed565b005b6101ee60048036038101906101e99190611c06565b610603565b6040516101fb919061158f565b60405180910390f35b61021e60048036038101906102199190611c46565b610697565b005b600080600083815260200190815260200160002060008473ffffffffffffffffffffffffffffffffffffffff1673ffffffffffffffffffffffffffffffffffffffff16815260200190815260200160002054905092915050565b60007fd9b67a26000000000000000000000000000000000000000000000000000000007bffffffffffffffffffffffffffffffffffffffffffffffffffffffff1916827bffffffffffffffffffffffffffffffffffffffffffffffffffffffff1916148061034557507f0e89341c000000000000000000000000000000000000000000000000000000007bffffffffffffffffffffffffffffffffffffffffffffffffffffffff1916827bffffffffffffffffffffffffffffffffffffffffffffffffffffffff1916145b8061035557506103548261073f565b5b9050919050565b60606002805461036b90611d0c565b80601f016020809104026020016040519081016040528092919081815260200182805461039790611d0c565b80156103e45780601f106103b9576101008083540402835291602001916103e4565b820191906000526020600020905b8154815290600101906020018083116103c757829003601f168201915b50505050509050919050565b60006103fa6107a9565b90508073ffffffffffffffffffffffffffffffffffffffff168673ffffffffffffffffffffffffffffffffffffffff161415801561043f575061043d8682610603565b155b156104835780866040517fe237d92200000000000000000000000000000000000000000000000000000000815260040161047a929190611d3d565b60405180910390fd5b61049086868686866107b1565b505050505050565b606081518351146104e457815183516040517f5b0599910000000000000000000000000000000000000000000000000000000081526004016104db929190611d66565b60405180910390fd5b6000835167ffffffffffffffff8111156105015761050061168e565b5b60405190808252806020026020018201604052801561052f5781602001602082028036833780820191505090505b50905060005b845181101561059c5761056c61055482876108a990919063ffffffff16565b61056783876108bd90919063ffffffff16565b610220565b82828151811061057f5761057e611d8f565b5b6020026020010181815250508061059590611ded565b9050610535565b508091505092915050565b6105c382826001604051806020016040528060008152506108d1565b5050565b600360009054906101000a900473ffffffffffffffffffffffffffffffffffffffff1681565b6105ff6105f86107a9565b838361096a565b5050565b6000600160008473ffffffffffffffffffffffffffffffffffffffff1673ffffffffffffffffffffffffffffffffffffffff16815260200190815260200160002060008373ffffffffffffffffffffffffffffffffffffffff1673ffffffffffffffffffffffffffffffffffffffff16815260200190815260200160002060009054906101000a900460ff16905092915050565b60006106a16107a9565b90508073ffffffffffffffffffffffffffffffffffffffff168673ffffffffffffffffffffffffffffffffffffffff16141580156106e657506106e48682610603565b155b1561072a5780866040517fe237d922000000000000000000000000000000000000000000000000000000008152600401610721929190611d3d565b60405180910390fd5b6107378686868686610ada565b505050505050565b60007f01ffc9a7000000000000000000000000000000000000000000000000000000007bffffffffffffffffffffffffffffffffffffffffffffffffffffffff1916827bffffffffffffffffffffffffffffffffffffffffffffffffffffffff1916149050919050565b600033905090565b600073ffffffffffffffffffffffffffffffffffffffff168473ffffffffffffffffffffffffffffffffffffffff16036108235760006040517f57f447ce00000000000000000000000000000000000000000000000000000000815260040161081a9190611b7f565b60405180910390fd5b600073ffffffffffffffffffffffffffffffffffffffff168573ffffffffffffffffffffffffffffffffffffffff16036108955760006040517f01a8351400000000000000000000000000000000000000000000000000000000815260040161088c9190611b7f565b60405180910390fd5b6108a28585858585610be5565b5050505050565b600060208202602084010151905092915050565b600060208202602084010151905092915050565b600073ffffffffffffffffffffffffffffffffffffffff168473ffffffffffffffffffffffffffffffffffffffff16036109435760006040517f57f447ce00000000000000000000000000000000000000000000000000000000815260040161093a9190611b7f565b60405180910390fd5b6000806109508585610c97565b91509150610962600087848487610be5565b505050505050565b600073ffffffffffffffffffffffffffffffffffffffff168273ffffffffffffffffffffffffffffffffffffffff16036109dc5760006040517fced3e1000000000000000000000000000000000000000000000000000000000081526004016109d39190611b7f565b60405180910390fd5b80600160008573ffffffffffffffffffffffffffffffffffffffff1673ffffffffffffffffffffffffffffffffffffffff16815260200190815260200160002060008473ffffffffffffffffffffffffffffffffffffffff1673ffffffffffffffffffffffffffffffffffffffff16815260200190815260200160002060006101000a81548160ff0219169083151502179055508173ffffffffffffffffffffffffffffffffffffffff168373ffffffffffffffffffffffffffffffffffffffff167f17307eab39ab6107e8899845ad3d59bd9653f200f220920489ca2b5937696c3183604051610acd919061158f565b60405180910390a3505050565b600073ffffffffffffffffffffffffffffffffffffffff168473ffffffffffffffffffffffffffffffffffffffff1603610b4c5760006040517f57f447ce000000000000000000000000000000000000000000000000000000008152600401610b439190611b7f565b60405180910390fd5b600073ffffffffffffffffffffffffffffffffffffffff168573ffffffffffffffffffffffffffffffffffffffff1603610bbe5760006040517f01a83514000000000000000000000000000000000000000000000000000000008152600401610bb59190611b7f565b60405180910390fd5b600080610bcb8585610c97565b91509150610bdc8787848487610be5565b50505050505050565b610bf185858585610cc7565b600073ffffffffffffffffffffffffffffffffffffffff168473ffffffffffffffffffffffffffffffffffffffff1614610c90576000610c2f6107a9565b90506001845103610c7f576000610c506000866108bd90919063ffffffff16565b90506000610c686000866108bd90919063ffffffff16565b9050610c78838989858589611075565b5050610c8e565b610c8d818787878787611229565b5b505b5050505050565b60608060405191506001825283602083015260408201905060018152826020820152604081016040529250929050565b8051825114610d1157815181516040517f5b059991000000000000000000000000000000000000000000000000000000008152600401610d08929190611d66565b60405180910390fd5b6000610d1b6107a9565b905060005b8351811015610f30576000610d3e82866108bd90919063ffffffff16565b90506000610d5583866108bd90919063ffffffff16565b9050600073ffffffffffffffffffffffffffffffffffffffff168873ffffffffffffffffffffffffffffffffffffffff1614610e8257600080600084815260200190815260200160002060008a73ffffffffffffffffffffffffffffffffffffffff1673ffffffffffffffffffffffffffffffffffffffff16815260200190815260200160002054905081811015610e2a57888183856040517f03dee4c5000000000000000000000000000000000000000000000000000000008152600401610e219493929190611e35565b60405180910390fd5b81810360008085815260200190815260200160002060008b73ffffffffffffffffffffffffffffffffffffffff1673ffffffffffffffffffffffffffffffffffffffff16815260200190815260200160002081905550505b600073ffffffffffffffffffffffffffffffffffffffff168773ffffffffffffffffffffffffffffffffffffffff1614610f1d578060008084815260200190815260200160002060008973ffffffffffffffffffffffffffffffffffffffff1673ffffffffffffffffffffffffffffffffffffffff1681526020019081526020016000206000828254610f159190611e7a565b925050819055505b505080610f2990611ded565b9050610d20565b506001835103610fef576000610f506000856108bd90919063ffffffff16565b90506000610f686000856108bd90919063ffffffff16565b90508573ffffffffffffffffffffffffffffffffffffffff168773ffffffffffffffffffffffffffffffffffffffff168473ffffffffffffffffffffffffffffffffffffffff167fc3d58168c5ae7397731d063d5bbf3d657854427343f4c083240f7aacaa2d0f628585604051610fe0929190611d66565b60405180910390a4505061106e565b8373ffffffffffffffffffffffffffffffffffffffff168573ffffffffffffffffffffffffffffffffffffffff168273ffffffffffffffffffffffffffffffffffffffff167f4a39dc06d4c0dbc64b70af90fd698a233a518aa5d07e595d983b8c0526c8f7fb8686604051611065929190611eae565b60405180910390a45b5050505050565b60008473ffffffffffffffffffffffffffffffffffffffff163b1115611221578373ffffffffffffffffffffffffffffffffffffffff1663f23a6e6187878686866040518663ffffffff1660e01b81526004016110d6959493929190611f3a565b6020604051808303816000875af192505050801561111257506040513d601f19601f8201168201806040525081019061110f9190611fa9565b60015b611196573d8060008114611142576040519150601f19603f3d011682016040523d82523d6000602084013e611147565b606091505b50600081510361118e57846040517f57f447ce0000000000000000000000000000000000000000000000000000000081526004016111859190611b7f565b60405180910390fd5b805181602001fd5b63f23a6e6160e01b7bffffffffffffffffffffffffffffffffffffffffffffffffffffffff1916817bffffffffffffffffffffffffffffffffffffffffffffffffffffffff19161461121f57846040517f57f447ce0000000000000000000000000000000000000000000000000000000081526004016112169190611b7f565b60405180910390fd5b505b505050505050565b60008473ffffffffffffffffffffffffffffffffffffffff163b11156113d5578373ffffffffffffffffffffffffffffffffffffffff1663bc197c8187878686866040518663ffffffff1660e01b815260040161128a959493929190611fd6565b6020604051808303816000875af19250505080156112c657506040513d601f19601f820116820180604052508101906112c39190611fa9565b60015b61134a573d80600081146112f6576040519150601f19603f3d011682016040523d82523d6000602084013e6112fb565b606091505b50600081510361134257846040517f57f447ce0000000000000000000000000000000000000000000000000000000081526004016113399190611b7f565b60405180910390fd5b805181602001fd5b63bc197c8160e01b7bffffffffffffffffffffffffffffffffffffffffffffffffffffffff1916817bffffffffffffffffffffffffffffffffffffffffffffffffffffffff1916146113d357846040517f57f447ce0000000000000000000000000000000000000000000000000000000081526004016113ca9190611b7f565b60405180910390fd5b505b505050505050565b6000604051905090565b600080fd5b600080fd5b600073ffffffffffffffffffffffffffffffffffffffff82169050919050565b600061141c826113f1565b9050919050565b61142c81611411565b811461143757600080fd5b50565b60008135905061144981611423565b92915050565b6000819050919050565b6114628161144f565b811461146d57600080fd5b50565b60008135905061147f81611459565b92915050565b6000806040838503121561149c5761149b6113e7565b5b60006114aa8582860161143a565b92505060206114bb85828601611470565b9150509250929050565b6114ce8161144f565b82525050565b60006020820190506114e960008301846114c5565b92915050565b60007fffffffff0000000000000000000000000000000000000000000000000000000082169050919050565b611524816114ef565b811461152f57600080fd5b50565b6000813590506115418161151b565b92915050565b60006020828403121561155d5761155c6113e7565b5b600061156b84828501611532565b91505092915050565b60008115159050919050565b61158981611574565b82525050565b60006020820190506115a46000830184611580565b92915050565b6000602082840312156115c0576115bf6113e7565b5b60006115ce84828501611470565b91505092915050565b600081519050919050565b600082825260208201905092915050565b60005b838110156116115780820151818401526020810190506115f6565b60008484015250505050565b6000601f19601f8301169050919050565b6000611639826115d7565b61164381856115e2565b93506116538185602086016115f3565b61165c8161161d565b840191505092915050565b60006020820190508181036000830152611681818461162e565b905092915050565b600080fd5b7f4e487b7100000000000000000000000000000000000000000000000000000000600052604160045260246000fd5b6116c68261161d565b810181811067ffffffffffffffff821117156116e5576116e461168e565b5b80604052505050565b60006116f86113dd565b905061170482826116bd565b919050565b600067ffffffffffffffff8211156117245761172361168e565b5b602082029050602081019050919050565b600080fd5b600061174d61174884611709565b6116ee565b905080838252602082019050602084028301858111156117705761176f611735565b5b835b8181101561179957806117858882611470565b845260208401935050602081019050611772565b5050509392505050565b600082601f8301126117b8576117b7611689565b5b81356117c884826020860161173a565b91505092915050565b600080fd5b600067ffffffffffffffff8211156117f1576117f061168e565b5b6117fa8261161d565b9050602081019050919050565b82818337600083830152505050565b6000611829611824846117d6565b6116ee565b905082815260208101848484011115611845576118446117d1565b5b611850848285611807565b509392505050565b600082601f83011261186d5761186c611689565b5b813561187d848260208601611816565b91505092915050565b600080600080600060a086880312156118a2576118a16113e7565b5b60006118b08882890161143a565b95505060206118c18882890161143a565b945050604086013567ffffffffffffffff8111156118e2576118e16113ec565b5b6118ee888289016117a3565b935050606086013567ffffffffffffffff81111561190f5761190e6113ec565b5b61191b888289016117a3565b925050608086013567ffffffffffffffff81111561193c5761193b6113ec565b5b61194888828901611858565b9150509295509295909350565b600067ffffffffffffffff8211156119705761196f61168e565b5b602082029050602081019050919050565b600061199461198f84611955565b6116ee565b905080838252602082019050602084028301858111156119b7576119b6611735565b5b835b818110156119e057806119cc888261143a565b8452602084019350506020810190506119b9565b5050509392505050565b600082601f8301126119ff576119fe611689565b5b8135611a0f848260208601611981565b91505092915050565b60008060408385031215611a2f57611a2e6113e7565b5b600083013567ffffffffffffffff811115611a4d57611a4c6113ec565b5b611a59858286016119ea565b925050602083013567ffffffffffffffff811115611a7a57611a796113ec565b5b611a86858286016117a3565b9150509250929050565b600081519050919050565b600082825260208201905092915050565b6000819050602082019050919050565b611ac58161144f565b82525050565b6000611ad78383611abc565b60208301905092915050565b6000602082019050919050565b6000611afb82611a90565b611b058185611a9b565b9350611b1083611aac565b8060005b83811015611b41578151611b288882611acb565b9750611b3383611ae3565b925050600181019050611b14565b5085935050505092915050565b60006020820190508181036000830152611b688184611af0565b905092915050565b611b7981611411565b82525050565b6000602082019050611b946000830184611b70565b92915050565b611ba381611574565b8114611bae57600080fd5b50565b600081359050611bc081611b9a565b92915050565b60008060408385031215611bdd57611bdc6113e7565b5b6000611beb8582860161143a565b9250506020611bfc85828601611bb1565b9150509250929050565b60008060408385031215611c1d57611c1c6113e7565b5b6000611c2b8582860161143a565b9250506020611c3c8582860161143a565b9150509250929050565b600080600080600060a08688031215611c6257611c616113e7565b5b6000611c708882890161143a565b9550506020611c818882890161143a565b9450506040611c9288828901611470565b9350506060611ca388828901611470565b925050608086013567ffffffffffffffff811115611cc457611cc36113ec565b5b611cd088828901611858565b9150509295509295909350565b7f4e487b7100000000000000000000000000000000000000000000000000000000600052602260045260246000fd5b60006002820490506001821680611d2457607f821691505b602082108103611d3757611d36611cdd565b5b50919050565b6000604082019050611d526000830185611b70565b611d5f6020830184611b70565b9392505050565b6000604082019050611d7b60008301856114c5565b611d8860208301846114c5565b9392505050565b7f4e487b7100000000000000000000000000000000000000000000000000000000600052603260045260246000fd5b7f4e487b7100000000000000000000000000000000000000000000000000000000600052601160045260246000fd5b6000611df88261144f565b91507fffffffffffffffffffffffffffffffffffffffffffffffffffffffffffffffff8203611e2a57611e29611dbe565b5b600182019050919050565b6000608082019050611e4a6000830187611b70565b611e5760208301866114c5565b611e6460408301856114c5565b611e7160608301846114c5565b95945050505050565b6000611e858261144f565b9150611e908361144f565b9250828201905080821115611ea857611ea7611dbe565b5b92915050565b60006040820190508181036000830152611ec88185611af0565b90508181036020830152611edc8184611af0565b90509392505050565b600081519050919050565b600082825260208201905092915050565b6000611f0c82611ee5565b611f168185611ef0565b9350611f268185602086016115f3565b611f2f8161161d565b840191505092915050565b600060a082019050611f4f6000830188611b70565b611f5c6020830187611b70565b611f6960408301866114c5565b611f7660608301856114c5565b8181036080830152611f888184611f01565b90509695505050505050565b600081519050611fa38161151b565b92915050565b600060208284031215611fbf57611fbe6113e7565b5b6000611fcd84828501611f94565b91505092915050565b600060a082019050611feb6000830188611b70565b611ff86020830187611b70565b818103604083015261200a8186611af0565b9050818103606083015261201e8185611af0565b905081810360808301526120328184611f01565b9050969550505050505056fea26469706673582212206bd3cb9ef95c80ac0aa744878a5386b7c4689fbc446d6955664d1abf348939a764736f6c63430008140033",
  "linkReferences": {},
  "deployedLinkReferences": {}
}